:020000040800F2
:1000000000080020910A0008810800088308000801
:1000100000000000000000000000000000000000E0
:10002000000000000000000000000000850800083B
:100030000000000000000000870800088908000890
:10004000110B0008110B0008110B0008110B000820
:10005000110B000891080008110B0008A9080008FE
:1000600000000000110B0008110B0008110B000824
:10007000110B0008110B000800000000110B000814
:100080000000000000000000000000000000000070
:10009000110B00080000000000000000110B000818
:1000A00000000000110B000800000000000000002C
:1000B000110B0008110B00080000000000000000F8
:1000C00010B5064C2378002B07D1054B002B02D02E
:1000D000044800E000BF0123237010BD0C00002085
:1000E000000000006C0B0008044B10B5002B03D07F
:1000F0000349044800E000BF10BDC04600000000F6
:10010000100000206C0B000802B471464908490039
:10011000095C49008E4402BC7047C0460022430877
:100120008B4274D303098B425FD3030A8B4244D3BF
:10013000030B8B4228D3030C8B420DD3FF22090201
:1001400012BA030C8B4202D31212090265D0030BC0
:100150008B4219D300E0090AC30B8B4201D3CB03B6
:10016000C01A5241830B8B4201D38B03C01A5241F8
:10017000430B8B4201D34B03C01A5241030B8B42FA
:1001800001D30B03C01A5241C30A8B4201D3CB02E5
:10019000C01A5241830A8B4201D38B02C01A5241CA
:1001A000430A8B4201D34B02C01A5241030A8B42CD
:1001B00001D30B02C01A5241CDD2C3098B4201D3E5
:1001C000CB01C01A524183098B4201D38B01C01A63
:1001D000524143098B4201D34B01C01A52410309DA
:1001E0008B4201D30B01C01A5241C3088B4201D389
:1001F000CB00C01A524183088B4201D38B00C01A36
:10020000524143088B4201D34B00C01A5241411A5C
:1002100000D20146524110467047FFE701B5002069
:1002200000F006F802BDC0460029F7D076E7704717
:100230007047C046054B82B0DA6A0243DA62DB6A75
:1002400018400190019B02B07047C0460010024068
:10025000A02370B5202286B0DB05C10715D59A61B1
:100260004022810713D59A61A0238022DB05410734
:100270000FD59A616A461100074B800070CB70C1A0
:1002800070CB70C1805806B070BD9A62E8E79A6280
:10029000EAE79A62EEE7C046840B000896231B014A
:1002A000C046013B002BFBD1A0230422DB059A6151
:1002B00096221201C046013A002AFBD104210C48C3
:1002C000996201680B2902DC01310160704709491C
:1002D00002600A6801320A60074909688A42F5D15A
:1002E00002221969114201D19A61EFE79A62EDE7A2
:1002F000440000203C000020400000200022224B4F
:1003000070B51A60214B10321960A023DB059A6288
:10031000083A00282CD09A613C23C046013B002BB0
:10032000FBD10524E0B2FFF793FF00268500AE4223
:1003300020DB013CF6D2164C013CFFF7AFFF002C4E
:10034000FAD1E0B2FFF784FF00268500AE4215DB4C
:100350000134062CF5D1A0230222DB0519691142D4
:1003600010D19A610B4BC046013B002BFBD170BDF5
:100370009A62D1E7FFF792FF0136D8E7FFF78EFFC9
:100380000136E3E79A62EDE73C00002040000020E0
:1003900023040000C0C62D00024A13680133136015
:1003A0007047C046480000200122014B1A70704778
:1003B00029000020704700000121274B10B51A6862
:1003C0008A430A431A600A0019681142FCD0234884
:1003D00023490368194080231B010B430360214B11
:1003E00019680A431A60042219681142FCD05A683D
:1003F0001D491140802252010A435A60DA681B49A4
:1004000011408822D2030A43DA608022196852041C
:100410000A431A608022920419681142FCD0F0212C
:10042000DA688A43DA60DA6811490A40DA60DA6821
:1004300010490A400321DA60DA680A43DA600931B8
:10044000DA680A400C2AFBD10B4800F0DDFA0A48B2
:1004500000F0EAFA10BDC0460020024000700040E3
:10046000FFE7FFFF00100240FFE0FFFFFFFF02FF7A
:10047000FFF8FFFFFFC7FFFF0048E8010120E04B46
:10048000F0B5596B91B00143596380215A6B49050E
:1004900002400792079A9A6B0A439A639B6B0B4040
:1004A0000693069BFFF788FFFA21D64B8900186850
:1004B000FFF734FE802301385B0498420DD2C0213F
:1004C000D14A09065060D148036A1B021B0A0B433C
:1004D0000362002393600733136008AC08220021F5
:1004E000200000F03BFB182200210AA800F036FB98
:1004F0000220FFF79FFE0420FFF79CFEA0250120AD
:10050000FFF798FE02230421102020264027ED0546
:10051000AB62A9624918A962A862AE62E136AF6215
:10052000BB4AFF36FF19AF62AE621369E8318B43F5
:10053000034313619368E139B64F8B439360FB68C3
:10054000B5480C390340FB60EA688A43EA603B68BF
:1005500003403B602B6820008B432B6008960126EC
:10056000A680A67100F000FAA6802000A671089669
:1005700000F0FAF9802300240AAA1100DB01A74841
:100580000A930E960B9400F09DF980230AAA1B0291
:100590001100A2480A930E960B9400F093F90222E0
:1005A0000A920AAA110028000B960C940D940E943E
:1005B00000F088F904210AAA0A91280011000B967C
:1005C0000C940D940E9400F07DF908210AAA0A916A
:1005D000280011000B960C940D940E9400F072F903
:1005E00010200AAA11000A9028000B960C940D9472
:1005F0000E9400F067F920230AA928000A930B96AD
:100600000C940D940E9400F05DF9402128000A919D
:100610000AA90B960C940D940E9400F053F98023C4
:100620000AA928000A930B960C940D940E9400F0DE
:1006300049F902220A920AAA110038000B940E947A
:1006400000F040F980230AAA11009B0028000A93B9
:100650000B960C940D940E9400F034F980230AAAA2
:100660001100DB0028000A930B940E9400F02AF985
:1006700020226B4B7F361E601A60802310209B0067
:10068000A862AB610E38FFF7E3FD08214836464308
:10069000A9620597A64200DD83E00420FFF7D8FD9C
:1006A0000823AB6180250024AD00FFF7F7FD059B13
:1006B0001B691A002A402B4277D00134032CF4DD49
:1006C0000023584A02211370A0220124D20591620E
:1006D000554A137022005549554F0B683E780193D7
:1006E000059B1B695B089A43A023DB051B690292EB
:1006F0009B0A234003930B681D00484B1A69802313
:10070000DB0113401800421E9041C2B2864201D064
:1007100048480560484E3078049019208446049873
:10072000002801D1FA30844642480068281A604502
:1007300009D90498904206D03270002B03D11A00D8
:10074000013303940293354B3A7009681A69802388
:100750001B0213401D006A1E95417E783548EAB29F
:10076000AE4200D041601925334EAC467778002F59
:1007700001D1E135AC464068304D091A2C4861453D
:1007800015D9974213D07270002B10D14370019B82
:100790002B60244E307803281FD8FFF7B5FC66691C
:1007A0006B6EFFF77BFD013474E714007DE7029B5D
:1007B0004270002B11D0019B1A4E2B60039B3078A6
:1007C000012BE6D1032808D8FFF79EFC023C4249E2
:1007D0000A210020FFF792FD3470134B1B78002B89
:1007E00006D12A68019B9B1A154A934200D871E7EB
:1007F000019B10222B60A023DB059A616AE7C046AB
:10080000001002400800002010E000E000ED00E0D1
:100810000000014000040050FFFFF3FF00080050FB
:1008200000E100E02800002029000020480000200E
:100830000300002030000020000000202C000020D9
:1008400060EA00005A210020FFF758FD022304E06F
:1008500021212000FFF752FD03233370BDE7422121
:100860002000FFF74BFD0023F7E721210020F1E7EF
:100870004221E8E70A212000ACE75A21F0E7C04610
:100880007047FEE77047704710B5FFF785FD10BD54
:100890000122044B10B55969114202D05A61FFF789
:1008A00083FD10BD000401408022054B9200596970
:1008B00010B5114202D05A61FFF77CFD10BDC04651
:1008C00000040140F7B5002302000C6800932000EB
:1008D000009BD84000D1FEBD0120009B9840230022
:1008E0000340044231D04868032501901800584362
:1008F0004543019EED43771E012F0BD88F68966804
:1009000047432E40374397605768CE68A7437443E8
:100910003C4354600C69D76844432F403C43D46047
:10092000019C022C0BD14F69FF2B11D803000F261D
:1009300043435E437B43146AB4431C43146213680D
:100940001D40019B584305431560009B0133BCE7E4
:100950000F261B0A5B435B435E437B43546AB443ED
:100960001C435462EBE70000020010B500791368E5
:1009700000283CD0002083421DD0507901281BD094
:10098000022822D0002824D11E494C689C434C6088
:100990000C681C430C609279002A0CD0022A1AD0F1
:1009A000032A20D0012A2AD1164AD1689943D1605E
:1009B00091680B43936010BD124908689843086022
:1009C0004868184348600020E5E70E490868184366
:1009D000F5E70120DFE70B4A916899439160D16800
:1009E0000B43D360E7E7074A91681943F6E7054AE6
:1009F000116899431160516899435160DBE7012008
:100A0000D9E7C04600040140FA2110B58900FFF77C
:100A100085FB0022034B013858609A6005321A604A
:100A200010BDC04610E000E0014B18607047C046A2
:100A3000080000208022104B520019680A431A60F7
:100A4000DA680E490A40DA601A680D490A40012145
:100A50001A609A688A439A601A680A490A401A60BA
:100A6000DA6809490A40DA6000221A618022074BDD
:100A700012059A607047C046001002400C40FF8883
:100A8000F6FFF6FEFFFFFBFFFFFF02FF00ED00E0B9
:100A90001348854613480168090E134A914205D14F
:100AA000124813490160134813490160002103E013
:100AB000124B5B58435004311148124B42189A4272
:100AC000F6D3114A02E00023136004320F4B9A421E
:100AD000F9D3FFF7AFFF00F01DF8FFF7CFFCFEE7FB
:100AE00000080020040000001F0000003410024035
:100AF000010000000000014000000000A40B0008FD
:100B0000000000200C0000200C0000204C00002001
:100B1000FEE7000070B500260C4D0D4C641BA410C0
:100B2000A64209D1002600F021F80A4D0A4C641BA8
:100B3000A410A64205D170BDB300EB58984701360A
:100B4000EEE7B300EB5898470136F2E79C0B00083C
:100B50009C0B00089C0B0008A00B000803008218E7
:100B6000934200D1704719700133F9E7F8B5C046D8
:100B7000F8BC08BC9E467047F8B5C046F8BC08BC37
:040B80009E467047D6
:100B84000100000002000000040000000800000052
:080B9400100000002000000029
:040B9C00E900000864
:040BA000C100000888
:0C0BA4000101010101010000000020001F
:0400000508000A9154
:00000001FF
