:020000040800F2
:1000000000080020FD090008ED070008EF070008C0
:1000100000000000000000000000000000000000E0
:10002000000000000000000000000000F1070008D0
:100030000000000000000000F3070008F5070008BA
:100040007D0A00087D0A00087D0A00087D0A000874
:100050007D0A0008FD0700087D0A00081508000851
:10006000000000007D0A00087D0A00087D0A0008E3
:100070007D0A00087D0A0008000000007D0A0008D3
:100080000000000000000000000000000000000070
:100090007D0A000800000000000000007D0A000842
:1000A000000000007D0A00080000000000000000C1
:1000B0007D0A00087D0A0008000000000000000022
:1000C00010B5064C2378002B07D1054B002B02D02E
:1000D000044800E000BF0123237010BD0800002089
:1000E00000000000D80A0008044B10B5002B03D014
:1000F0000349044800E000BF10BDC04600000000F6
:100100000C000020D80A000802B4714649084900D2
:10011000095C49008E4402BC7047C0460022430877
:100120008B4274D303098B425FD3030A8B4244D3BF
:10013000030B8B4228D3030C8B420DD3FF22090201
:1001400012BA030C8B4202D31212090265D0030BC0
:100150008B4219D300E0090AC30B8B4201D3CB03B6
:10016000C01A5241830B8B4201D38B03C01A5241F8
:10017000430B8B4201D34B03C01A5241030B8B42FA
:1001800001D30B03C01A5241C30A8B4201D3CB02E5
:10019000C01A5241830A8B4201D38B02C01A5241CA
:1001A000430A8B4201D34B02C01A5241030A8B42CD
:1001B00001D30B02C01A5241CDD2C3098B4201D3E5
:1001C000CB01C01A524183098B4201D38B01C01A63
:1001D000524143098B4201D34B01C01A52410309DA
:1001E0008B4201D30B01C01A5241C3088B4201D389
:1001F000CB00C01A524183088B4201D38B00C01A36
:10020000524143088B4201D34B00C01A5241411A5C
:1002100000D20146524110467047FFE701B5002069
:1002200000F006F802BDC0460029F7D076E7704717
:100230007047C046054B82B0DA6A0243DA62DB6A75
:1002400018400190019B02B07047C0460010024068
:10025000A02370B5202286B0DB05C10715D59A61B1
:100260004022810713D59A61A0238022DB05410734
:100270000FD59A616A461100074B800070CB70C1A0
:1002800070CB70C1805806B070BD9A62E8E79A6280
:10029000EAE79A62EEE7C046F00A0008144BC0464F
:1002A000013B002BFBD1A0230422DB059A61104AFD
:1002B000C046013A002AFBD104210E489962016828
:1002C0000B2902DC0131016070470B4902600A68AA
:1002D00001320A60094908688242F5DB084A0A606F
:1002E00002221969114201D19A61EDE79A62EBE7A6
:1002F000B80B0000340000202C000020300000204B
:10030000E703000000221B4B70B51A601A4B103235
:100310001960A023DB059A62083A002820D09A6170
:100320003C23C046013B002BFBD10524E0B2FFF784
:100330008FFF00268500AE4214DB013CF6D20F4C45
:10034000013CFFF7ABFF002CFAD1E0B2FFF780FFD2
:1003500000268500AE4209DB0134062CF5D170BDC4
:100360009A62DDE7FFF79AFF0136E4E7FFF796FFB1
:100370000136EFE72C0000203000002023040000AD
:10038000024A1368013313607047C04638000020EA
:100390000122014B1A7070472500002070470000B1
:1003A0000121274B10B51A688A430A431A600A00D4
:1003B00019681142FCD0234823490368194080235F
:1003C0001B010B430360214B19680A431A60042286
:1003D00019681142FCD05A681D491140802252010F
:1003E0000A435A60DA681B4911408822D2030A4343
:1003F000DA608022196852040A431A60802292044B
:1004000019681142FCD0F021DA688A43DA60DA68B0
:1004100011490A40DA60DA6810490A400321DA60BB
:10042000DA680A43DA600931DA680A400C2AFBD13B
:100430000B4800F09FFA0A4800F0ACFA10BDC04625
:100440000020024000700040FFE7FFFF0010024064
:10045000FFE0FFFFFFFF02FFFFF8FFFFFFC7FFFF07
:100460000048E8010120D24BF0B5596B8FB0014331
:10047000596380215A6B490502400592059A9A6B8F
:100480000A439A639B6B0B400493049BFFF788FF1E
:10049000FA21C84B89001868FFF740FE8023013815
:1004A0005B0498420DD2C021C34A09065060C3487C
:1004B000036A1B021B0A0B4303620023936007338A
:1004C000136006AC08220021200000F0FDFA18227B
:1004D000002108A800F0F8FA0220FFF7ABFE042084
:1004E000FFF7A8FEA0250120FFF7A4FE02230421A8
:1004F000082040268027ED05AB62A962A8621C3166
:100500000018A862AE4AA962BF00AE62B619AE6218
:10051000AF621369D0318B43034313619368E139B0
:10052000A84E8B439360F368A7480C390340F360EF
:10053000EA688A43EA603368034033602B6820002E
:100540008B432B6006970127A780A77100F0C2F9A3
:10055000A7802000A771069700F0BCF98023002433
:10056000DB01089308AB190098480C97099400F038
:100570005FF980231B02089308AB190093480C977E
:10058000099400F055F9022208AB190028000892DE
:1005900009970A940B940C9400F04AF9042128005E
:1005A000089108A909970A940B940C9400F040F95B
:1005B000082208A92800089209970A940B940C9421
:1005C00000F036F9102008A90890280009970A942D
:1005D0000B940C9400F02CF920212800089108A914
:1005E00009970A940B940C9400F022F9402208A970
:1005F0002800089209970A940B940C9400F018F9BB
:10060000802308A92800089309970A940B940C9456
:1006100000F00EF9802308A9DB0028000893099454
:100620000C9400F005F9802308A99B00280008938A
:1006300009970A940B940C9400F0FAF8022208929D
:1006400008AA11003000802709940C9400F0F0F8FB
:100650008022202110205E4BBF001A601960A86222
:10066000AF61336902963B423BD10320FFF7F0FDB7
:10067000A0230822802500240127DB059A61AD0014
:10068000FFF70CFE029B1B691A002A402B4235D053
:10069000002C35D0A024002302224E4DE4052B70FF
:1006A000A2624D4A137080224C4BD2001B6801930A
:1006B000236913403C22C046013A002AFBD1484F2F
:1006C000002B1FD0444B1B78002B05D13A68019BAF
:1006D0009B1A444A9342E6D9019B3B601023A361D5
:1006E000E1E70220FFF7B4FD0823AB62C8254543CC
:1006F000A542BADDFFF7D2FD0134F9E71400BFE7E8
:100700003C00BDE70222019B3B60029B1B6913403A
:100710001800411E8841C1B2039133490E788642C8
:1007200005D0206910420BD1A261039A0A70287883
:10073000002B2AD103281DD8FFF7E6FC040A161067
:10074000A262F2E705210020FFF7DCFD012310E0A3
:1007500062210020FFF7D6FD02230AE0422101209A
:10076000FFF7D0FD002304E02D210120FFF7CAFD93
:1007700003232B70022322691A4216D1A361194B5D
:10078000C046013B002BFBD19CE70328F2D8FFF7C2
:10079000BBFC020A070521210020E7E75521D8E725
:1007A00005210120D0E76221D9E7A362E7E7C0462F
:1007B000001002400400002010E000E000ED00E026
:1007C0000000014000040050FFFFF3FF000800504C
:1007D00000E100E024000020250000203800002077
:1007E0002800002060EA0000000000207047FEE7BB
:1007F0007047704710B5FFF7C3FD10BD0122044BD1
:1008000010B55969114202D05A61FFF7C1FD10BD00
:10081000000401408022054B9200596910B5114235
:1008200002D05A61FFF7BAFD10BDC0460004014076
:10083000F7B5002302000C6800932000009BD8400D
:1008400000D1FEBD0120009B9840230003400442DC
:1008500031D0486803250190180058434543019E54
:10086000ED43771E012F0BD88F68966847432E40C3
:10087000374397605768CE68A74374433C4354603E
:100880000C69D76844432F403C43D460019C022C40
:100890000BD14F69FF2B11D803000F2643435E4352
:1008A0007B43146AB4431C43146213681D40019BCC
:1008B000584305431560009B0133BCE70F261B0A14
:1008C0005B435B435E437B43546AB4431C435462C3
:1008D000EBE70000020010B50079136800283CD057
:1008E000002083421DD0507901281BD0022822D03D
:1008F000002824D11E494C689C434C600C681C4362
:100900000C609279002A0CD0022A1AD0032A20D037
:10091000012A2AD1164AD1689943D16091680B43C4
:10092000936010BD124908689843086048681843EE
:1009300048600020E5E70E4908681843F5E7012004
:10094000DFE70B4A916899439160D1680B43D3600C
:10095000E7E7074A91681943F6E7054A11689943A2
:100960001160516899435160DBE70120D9E7C04627
:1009700000040140FA2110B58900FFF7CFFB0022E7
:10098000034B013858609A6005321A6010BDC046AA
:1009900010E000E0014B18607047C04604000020E2
:1009A0008022104B520019680A431A60DA680E4917
:1009B0000A40DA601A680D490A4001211A609A68F3
:1009C0008A439A601A680A490A401A60DA68094933
:1009D0000A40DA6000221A618022074B12059A60F1
:1009E0007047C046001002400C40FF88F6FFF6FE3C
:1009F000FFFFFBFFFFFF02FF00ED00E0134885460D
:100A000013480168090E134A914205D1124813494F
:100A10000160134813490160002103E0124B5B5849
:100A2000435004311148124B42189A42F6D3114AEE
:100A300002E00023136004320F4B9A42F9D3FFF710
:100A4000AFFF00F01DF8FFF70DFDFEE700080020E6
:100A5000040000001F0000003410024001000000EC
:100A60000000014000000000100B00080000002002
:100A700008000020080000203C000020FEE70000E5
:100A800070B500260C4D0D4C641BA410A64209D174
:100A9000002600F021F80A4D0A4C641BA410A6425F
:100AA00005D170BDB300EB5898470136EEE7B300AF
:100AB000EB5898470136F2E7080B0008080B0008CE
:100AC000080B00080C0B000803008218934200D1A9
:100AD000704719700133F9E7F8B5C046F8BC08BC97
:100AE0009E467047F8B5C046F8BC08BC9E467047A5
:100AF00001000000020000000400000008000000E7
:080B00001000000020000000BD
:040B0800E9000008F8
:040B0C00C10000081C
:080B10000100000000002000BC
:04000005080009FDE9
:00000001FF
