:020000040800F2
:1000000000080020E10A0008D1080008D308000811
:1000100000000000000000000000000000000000E0
:10002000000000000000000000000000D5080008EB
:100030000000000000000000D7080008D9080008F0
:10004000610B0008610B0008610B0008610B0008E0
:10005000610B0008E1080008610B0008F9080008BE
:1000600000000000610B0008610B0008610B000834
:10007000610B0008610B000800000000610B000824
:100080000000000000000000000000000000000070
:10009000610B00080000000000000000610B000878
:1000A00000000000610B00080000000000000000DC
:1000B000610B0008610B0008000000000000000058
:1000C00010B5064C2378002B07D1054B002B02D02E
:1000D000044800E000BF0123237010BD0800002089
:1000E00000000000BC0B0008044B10B5002B03D02F
:1000F0000349044800E000BF10BDC04600000000F6
:100100000C000020BC0B000802B4714649084900ED
:10011000095C49008E4402BC7047C0460022430877
:100120008B4274D303098B425FD3030A8B4244D3BF
:10013000030B8B4228D3030C8B420DD3FF22090201
:1001400012BA030C8B4202D31212090265D0030BC0
:100150008B4219D300E0090AC30B8B4201D3CB03B6
:10016000C01A5241830B8B4201D38B03C01A5241F8
:10017000430B8B4201D34B03C01A5241030B8B42FA
:1001800001D30B03C01A5241C30A8B4201D3CB02E5
:10019000C01A5241830A8B4201D38B02C01A5241CA
:1001A000430A8B4201D34B02C01A5241030A8B42CD
:1001B00001D30B02C01A5241CDD2C3098B4201D3E5
:1001C000CB01C01A524183098B4201D38B01C01A63
:1001D000524143098B4201D34B01C01A52410309DA
:1001E0008B4201D30B01C01A5241C3088B4201D389
:1001F000CB00C01A524183088B4201D38B00C01A36
:10020000524143088B4201D34B00C01A5241411A5C
:1002100000D20146524110467047FFE701B5002069
:1002200000F006F802BDC0460029F7D076E7704717
:100230007047C046054B82B0DA6A0243DA62DB6A75
:1002400018400190019B02B07047C0460010024068
:10025000A02370B5202286B0DB05C10715D59A61B1
:100260004022810713D59A61A0238022DB05410734
:100270000FD59A616A461100074B800070CB70C1A0
:1002800070CB70C1805806B070BD9A62E8E79A6280
:10029000EAE79A62EEE7C046D40B0008144BC0466A
:1002A000013B002BFBD1A0230422DB059A61104AFD
:1002B000C046013A002AFBD104210E489962016828
:1002C0000B2902DC0131016070470B4902600A68AA
:1002D00001320A60094908688242F5DB084A0A606F
:1002E00002221969114201D19A61EDE79A62EBE7A6
:1002F000B80B000040000020380000203C00002027
:10030000E7030000A0231022DB0570B59A620D0000
:10031000083A00280CD09A613C24C046013C002CCD
:10032000FBD10220FFF794FF4543AC4202DB70BDD6
:100330009A62F1E7FFF7B2FF0134F6E70022F8B561
:100340001C4B1A601C4B10321960A023DB059A620B
:10035000083A002824D09A613C23C046013B002B78
:10036000FBD105240326E0B2FFF772FF704300279C
:100370000500AF4216DB013CF5D2104C013CFFF703
:100380008DFF002CFAD10326E0B2FFF761FF704326
:1003900000270500AF4209DB0134062CF4D1F8BD7B
:1003A0009A62D9E7FFF77AFF0137E2E7FFF776FFB6
:1003B0000137EFE7380000203C0000202F04000048
:1003C00010B50300274802789A4207D0A0220221E4
:1003D000D20514690C420BD191610370224C207834
:1003E000002B2CD103281DD8FFF78EFE040A16100F
:1003F0009162F2E705210020FFF7A0FF012310E042
:1004000062210020FFF79AFF02230AE04221012027
:10041000FFF794FF002304E02D210120FFF78EFF5A
:1004200003232370A0230222DB051969114216D190
:100430009A610E4BC046013B002BFBD110BD032837
:10044000F0D8FFF761FE020A07052D210020E5E73D
:100450004221D6E705210120CEE76221D7E79A6243
:10046000E7E7C046000000202400002060EA00000A
:10047000024A1368013313607047C04644000020ED
:100480000122014B1A7070472500002070470000C0
:100490000121274B10B51A688A430A431A600A00E3
:1004A00019681142FCD0234823490368194080236E
:1004B0001B010B430360214B19680A431A60042295
:1004C00019681142FCD05A681D491140802252011E
:1004D0000A435A60DA681B4911408822D2030A4352
:1004E000DA608022196852040A431A60802292045A
:1004F00019681142FCD0F021DA688A43DA60DA68C0
:1005000011490A40DA60DA6810490A400321DA60CA
:10051000DA680A43DA600931DA680A400C2AFBD14A
:100520000B4800F099FA0A4800F0A6FA10BDC04640
:100530000020024000700040FFE7FFFF0010024073
:10054000FFE0FFFFFFFF02FFFFF8FFFFFFC7FFFF16
:100550000048E8010120CE4BF0B5596B8DB0014346
:10056000596380215A6B490502400392039A9A6BA2
:100570000A439A639B6B0B400293029BFFF788FF31
:10058000FA21C44B89001868FFF7C8FD80230138A1
:100590005B0498420DD2C021BF4A09065060BF4893
:1005A000036A1B021B0A0B43036200239360073399
:1005B000136004AC08220021200000F0F7FA182292
:1005C000002106A800F0F2FA0220FFF733FE042013
:1005D000FFF730FEA0250120FFF72CFE02230421A7
:1005E000082010264027ED05AB62A962A8621C31E5
:1005F0007830AE62A962AF62A8628130A84AFF304B
:10060000A8621369D0318B43334313619368E13996
:100610008B4393608023A34FA349FA68DB020A400F
:1006200013430322FB60EB680F3E93433343EB60BD
:100630003B680B403B602B6893432B60A680049083
:100640002000A67100F0B8F9A6802000A6710496DB
:1006500000F0B2F98023002406AA1100DB019348C0
:1006600006930A96079400F055F9802306AA1B0208
:1006700011008E4806930A96079400F04BF9022267
:1006800006A9280006920796089409940A9400F097
:1006900041F9042306A928000693079608940994B3
:1006A0000A9400F037F9082306A928000693079654
:1006B000089409940A9400F02DF9102306A9280043
:1006C00006930796089409940A9400F023F92021D0
:1006D0002800069106A90796089409940A9400F048
:1006E00019F9402306A9280006930796089409944F
:1006F0000A9400F00FF9802206A9280006920796B6
:10070000089409940A9400F005F9802306A9DB00F7
:100710002800069307940A9400F0FCF880200796BE
:10072000800006AE310006902800089409940A94CF
:1007300000F0F0F8022206AE31003800069207946D
:100740000A9400F0E7F880222021594B80201A609B
:10075000196010238000AB62A8613B6901970342D6
:1007600003D02000A831FFF7CDFD0320FFF770FD77
:100770000823AB61802500240126AD00FFF78EFD24
:10078000019B1B691A002A402B4255D0002C55D0E2
:100790000023484A02211370A022D2059161464AE3
:1007A00013708021454E414A356833681269090249
:1007B0000A401000411E8841414CC1B2677887420F
:1007C00004D04048002A3BD143606170374A336807
:1007D00011698022D2010A401000411E884126780A
:1007E000C1B2864204D03748002A3DD1036021704F
:1007F000A0238022DB051B69D20013403C22C046A7
:10080000013A002AFBD1304C002B06D1019B256018
:1008100018698007C00FFFF7D3FD274B1B78002B0B
:1008200004D12368294AEB1A9342BAD9A023102293
:10083000DB0525609A61B4E714009FE734009DE76B
:10084000426861709B1A0A2BC0D91F4A1560FA22B0
:100850005200934203D90120FFF7B2FDB6E7012110
:100860000020FFF74FFDB1E7026821709B1A0A2BA9
:10087000BED9154A1560FA225200934203D90020CE
:10088000FFF79EFDB4E701210800FFF73BFDAFE74E
:10089000001002400400002010E000E000ED00E045
:1008A0000000014000040050FFFFF3FF000800506B
:1008B00000E100E02400002025000020440000208A
:1008C000010000202C0000202800002060EA000029
:1008D0007047FEE77047704710B5FFF7C9FD10BDC0
:1008E0000122044B10B55969114202D05A61FFF739
:1008F000C7FD10BD000401408022054B92005969DC
:1009000010B5114202D05A61FFF7C0FD10BDC046BC
:1009100000040140F7B5002302000C68009320009A
:10092000009BD84000D1FEBD0120009B98402300D1
:100930000340044231D04868032501901800584311
:100940004543019EED43771E012F0BD88F689668B3
:1009500047432E40374397605768CE68A743744398
:100960003C4354600C69D76844432F403C43D460F7
:10097000019C022C0BD14F69FF2B11D803000F26CD
:1009800043435E437B43146AB4431C4314621368BD
:100990001D40019B584305431560009B0133BCE794
:1009A0000F261B0A5B435B435E437B43546AB4439D
:1009B0001C435462EBE70000020010B50079136895
:1009C00000283CD0002083421DD0507901281BD044
:1009D000022822D0002824D11E494C689C434C6038
:1009E0000C681C430C609279002A0CD0022A1AD0A1
:1009F000032A20D0012A2AD1164AD1689943D1600E
:100A000091680B43936010BD1249086898430860D1
:100A10004868184348600020E5E70E490868184315
:100A2000F5E70120DFE70B4A916899439160D168AF
:100A30000B43D360E7E7074A91681943F6E7054A95
:100A4000116899431160516899435160DBE70120B7
:100A5000D9E7C04600040140FA2110B58900FFF72C
:100A60005DFB0022034B013858609A6005321A6022
:100A700010BDC04610E000E0014B18607047C04652
:100A8000040000208022104B520019680A431A60AB
:100A9000DA680E490A40DA601A680D490A400121F5
:100AA0001A609A688A439A601A680A490A401A606A
:100AB000DA6809490A40DA6000221A618022074B8D
:100AC00012059A607047C046001002400C40FF8833
:100AD000F6FFF6FEFFFFFBFFFFFF02FF00ED00E069
:100AE0001348854613480168090E134A914205D1FF
:100AF000124813490160134813490160002103E0C3
:100B0000124B5B58435004311148124B42189A4221
:100B1000F6D3114A02E00023136004320F4B9A42CD
:100B2000F9D3FFF7AFFF00F01DF8FFF713FDFEE765
:100B300000080020040000001F00000034100240E4
:100B4000010000000000014000000000F40B00085C
:100B500000000020080000200800002048000020BD
:100B6000FEE7000070B500260C4D0D4C641BA41070
:100B7000A64209D1002600F021F80A4D0A4C641B58
:100B8000A410A64205D170BDB300EB5898470136BA
:100B9000EEE7B300EB5898470136F2E7EC0B00089C
:100BA000EC0B0008EC0B0008F00B000803008218A7
:100BB000934200D1704719700133F9E7F8B5C04688
:100BC000F8BC08BC9E467047F8B5C046F8BC08BCE7
:040BD0009E46704786
:100BD4000100000002000000040000000800000002
:080BE4001000000020000000D9
:040BEC00E900000814
:040BF000C100000838
:080BF4000101010100002000D5
:0400000508000AE104
:00000001FF
