:020000040800F2
:1000000000080020610B000851090008530900088E
:1000100000000000000000000000000000000000E0
:10002000000000000000000000000000550900086A
:1000300000000000000000005709000859090008EE
:10004000E10B0008E10B0008E10B0008E10B0008E0
:10005000E10B000861090008E10B000879090008BC
:1000600000000000E10B0008E10B0008E10B0008B4
:10007000E10B0008E10B000800000000E10B0008A4
:100080000000000000000000000000000000000070
:10009000E10B00080000000000000000E10B000878
:1000A00000000000E10B000800000000000000005C
:1000B000E10B0008E10B0008000000000000000058
:1000C00010B5064C2378002B07D1054B002B02D02E
:1000D000044800E000BF0123237010BD0800002089
:1000E000000000003C0C0008044B10B5002B03D0AE
:1000F0000349044800E000BF10BDC04600000000F6
:100100000C0000203C0C000802B47146490849006C
:10011000095C49008E4402BC7047C0460022430877
:100120008B4274D303098B425FD3030A8B4244D3BF
:10013000030B8B4228D3030C8B420DD3FF22090201
:1001400012BA030C8B4202D31212090265D0030BC0
:100150008B4219D300E0090AC30B8B4201D3CB03B6
:10016000C01A5241830B8B4201D38B03C01A5241F8
:10017000430B8B4201D34B03C01A5241030B8B42FA
:1001800001D30B03C01A5241C30A8B4201D3CB02E5
:10019000C01A5241830A8B4201D38B02C01A5241CA
:1001A000430A8B4201D34B02C01A5241030A8B42CD
:1001B00001D30B02C01A5241CDD2C3098B4201D3E5
:1001C000CB01C01A524183098B4201D38B01C01A63
:1001D000524143098B4201D34B01C01A52410309DA
:1001E0008B4201D30B01C01A5241C3088B4201D389
:1001F000CB00C01A524183088B4201D38B00C01A36
:10020000524143088B4201D34B00C01A5241411A5C
:1002100000D20146524110467047FFE701B5002069
:1002200000F006F802BDC0460029F7D076E7704717
:100230007047C046054B82B0DA6A0243DA62DB6A75
:1002400018400190019B02B07047C0460010024068
:10025000A02370B5202286B0DB05C10715D59A61B1
:100260004022810713D59A61A0238022DB05410734
:100270000FD59A616A461100074B800070CB70C1A0
:1002800070CB70C1805806B070BD9A62E8E79A6280
:10029000EAE79A62EEE7C046540C0008074B5A683A
:1002A00092070AD55A68D20703D5054ADA60054A8B
:1002B000DA60054A1A61054A1A6170470020024057
:1002C000EFCDAB8905040302BFAE9D8C1615141348
:1002D000144BC046013B002BFBD1A0230422DB05BD
:1002E0009A61104AC046013A002AFBD104210E4807
:1002F000996201680B2902DC0131016070470B49EA
:1003000002600A6801320A60094908688242F5DB26
:10031000084A0A6002221969114201D19A61EDE787
:100320009A62EBE7B80B00003C000020340000208C
:1003300038000020E7030000A0231022DB0570B581
:1003400005009A620800083A002D0EDC9A613C24F0
:10035000C046013C002CFBD1FFF77AFFEB17ED18EC
:100360005D404543A54202DC70BD9A62EFE7FFF7AE
:10037000AFFF0134F6E700000022F8B51C4B1A600D
:100380001C4B10321960A023DB059A62083A002842
:1003900024D09A613C23C046013B002BFBD10524AD
:1003A0000326E0B2FFF754FF704300270500AF4279
:1003B00016DB013CF5D2104C013CFFF789FF002C05
:1003C000FAD10326E0B2FFF743FF70430027050090
:1003D000AF4209DB0134062CF4D1F8BD9A62D9E7AB
:1003E000FFF776FF0137E2E7FFF772FF0137EFE72C
:1003F00034000020380000202F04000010B5030056
:10040000274802789A4207D0A0220221D205146917
:100410000C420BD191610370224C2078002B2CD11F
:1004200003281DD8FFF770FE040A16109162F2E748
:1004300005210020FFF7A0FF012310E0622100202A
:10044000FFF79AFF02230AE042210120FFF794FF01
:10045000002304E02D210120FFF78EFF03232370EA
:10046000A0230222DB051969114216D19A610E4BB5
:10047000C046013B002BFBD110BD0328F0D8FFF78D
:1004800043FE020A07052D210020E5E74221D6E7B9
:1004900005210120CEE76221D7E79A62E7E7C0464F
:1004A000000000202400002060EA0000024A1368D7
:1004B000013313607047C046400000200122014B09
:1004C0001A70704725000020704700000121274B5B
:1004D00010B51A688A430A431A600A001968114263
:1004E000FCD0234823490368194080231B010B4398
:1004F0000360214B19680A431A60042219681142EB
:10050000FCD05A681D491140802252010A435A60AA
:10051000DA681B4911408822D2030A43DA6080223C
:10052000196852040A431A60802292041968114221
:10053000FCD0F021DA688A43DA60DA6811490A40AF
:10054000DA60DA6810490A400321DA60DA680A439F
:10055000DA600931DA680A400C2AFBD10B4800F056
:10056000BBFA0A4800F0C8FA10BDC046002002409D
:1005700000700040FFE7FFFF00100240FFE0FFFFB8
:10058000FFFF02FFFFF8FFFFFFC7FFFF0048E80182
:100590000120DF4BF0B5596B8FB0014359638021C7
:1005A0005A6B490502400592059A9A6B0A439A6371
:1005B0009B6B0B400493049BFFF788FFFA21D54BFC
:1005C00089001868FFF7AAFD802301385B04984270
:1005D0000DD2C021D04A09065060D048036A1B02E0
:1005E0001B0A0B430362002393600733136006ACBE
:1005F00008220021200000F019FB1822002108A881
:1006000000F014FB0220FFF715FE0420FFF712FE96
:10061000A0250120FFF70EFE02230421082010264A
:100620004027ED05AB62A962A8621C317830AE624A
:10063000A962AF62A8628130B94AFF30A86213692B
:10064000D0318B43334313619368E1398B4393601B
:100650008023B44FB449FA68DB020A4013430322F3
:10066000FB60EB680F3E93433343EB603B680B400A
:100670003B602B6893432B60A68006902000A671F8
:1006800000F0DAF9A6802000A671069600F0D4F9F1
:100690008023002408AA1100DB01A44808930994D0
:1006A0000C9600F077F9802308AA1B0211009F48DE
:1006B000089309940C9600F06DF9022208A928000D
:1006C000089209960A940B940C9400F063F90423A1
:1006D00008A92800089309960A940B940C9400F03A
:1006E00059F9082308A92800089309960A940B943D
:1006F0000C9400F04FF9102308A9280008930996DC
:100700000A940B940C9400F045F9202128000891DC
:1007100008A909960A940B940C9400F03BF9402325
:1007200008A92800089309960A940B940C9400F0E9
:1007300031F9802208A92800089209960A940B949E
:100740000C9400F027F9802308A9DB002800089307
:1007500009940C9400F01EF980200996800008AEE0
:100760003100089028000A940B940C9400F012F9C0
:10077000022209940C9408AC21003800089200F081
:1007800009F9802220216A4B80201A601960102309
:100790008000AB62A8613B690197034204D03938FD
:1007A0001E39FF38FFF7C8FD0320FFF751FD08236E
:1007B000AB61802500240126AD00FFF789FD019B78
:1007C0001B691A002A402B4269D0002C69D0594C71
:1007D000032125682800FFF7AFFD0023564A0221B8
:1007E0001370A022D205916106319161534A02949F
:1007F0001370802252494D480B680C68036912023D
:1008000013401E00721E9641F2B203924D4A577871
:10081000B7424BD04C4E002B45D17460039C096805
:10082000547004698020C00104402000461EB0417D
:100830001778C6B287423ED04348002C38D10160B9
:1008400016700A2B06D9FA225200934235D901209C
:10085000FFF7D4FD0A2C06D9FA235B009C4241D94C
:100860000020FFF7CBFDA0238022DB051B69D2000F
:1008700013403C22C046013A002AFBD1002B05D18F
:10088000019B18698007C00FFFF7B8FD2B4B1B7841
:10089000002BAED0A0231022DB059A61A9E714003B
:1008A0008BE7340089E77368E31AB7E70023B5E7FD
:1008B00004680C1BC4E70024C2E702210120FFF7F3
:1008C0003BFD013572B6FFF7E9FC0122029B1D607A
:1008D0001E4B99691142FCD1022259680A435A60A1
:1008E00062B6B7E7012002214042FFF725FD013D36
:1008F00072B6FFF7D3FC0122029B1D60134B99696E
:100900001142FCD1022259680A435A6062B6AAE732
:10091000001002400400002010E000E000ED00E0C4
:100920000000014000040050FFFFF3FF00080050EA
:1009300000E100E00000080824000020250000205D
:10094000400000200100002028000020002002407C
:100950007047FEE77047704710B5FFF7A7FD10BD61
:100960000122044B10B55969114202D05A61FFF7B8
:10097000A5FD10BD000401408022054B920059697D
:1009800010B5114202D05A61FFF79EFD10BDC0465E
:1009900000040140F7B5002302000C68009320001A
:1009A000009BD84000D1FEBD0120009B9840230051
:1009B0000340044231D04868032501901800584391
:1009C0004543019EED43771E012F0BD88F68966833
:1009D00047432E40374397605768CE68A743744318
:1009E0003C4354600C69D76844432F403C43D46077
:1009F000019C022C0BD14F69FF2B11D803000F264D
:100A000043435E437B43146AB4431C43146213683C
:100A10001D40019B584305431560009B0133BCE713
:100A20000F261B0A5B435B435E437B43546AB4431C
:100A30001C435462EBE70000020010B50079136814
:100A400000283CD0002083421DD0507901281BD0C3
:100A5000022822D0002824D11E494C689C434C60B7
:100A60000C681C430C609279002A0CD0022A1AD020
:100A7000032A20D0012A2AD1164AD1689943D1608D
:100A800091680B43936010BD124908689843086051
:100A90004868184348600020E5E70E490868184395
:100AA000F5E70120DFE70B4A916899439160D1682F
:100AB0000B43D360E7E7074A91681943F6E7054A15
:100AC000116899431160516899435160DBE7012037
:100AD000D9E7C04600040140FA2110B58900FFF7AC
:100AE0001DFB0022034B013858609A6005321A60E2
:100AF00010BDC04610E000E0014B18607047C046D2
:100B0000040000208022104B520019680A431A602A
:100B1000DA680E490A40DA601A680D490A40012174
:100B20001A609A688A439A601A680A490A401A60E9
:100B3000DA6809490A40DA6000221A618022074B0C
:100B400012059A607047C046001002400C40FF88B2
:100B5000F6FFF6FEFFFFFBFFFFFF02FF00ED00E0E8
:100B60001348854613480168090E134A914205D17E
:100B7000124813490160134813490160002103E042
:100B8000124B5B58435004311148124B42189A42A1
:100B9000F6D3114A02E00023136004320F4B9A424D
:100BA000F9D3FFF7AFFF00F01DF8FFF7F1FCFEE708
:100BB00000080020040000001F0000003410024064
:100BC000010000000000014000000000740C00085B
:100BD0000000002008000020080000204400002041
:100BE000FEE7000070B500260C4D0D4C641BA410F0
:100BF000A64209D1002600F021F80A4D0A4C641BD8
:100C0000A410A64205D170BDB300EB589847013639
:100C1000EEE7B300EB5898470136F2E76C0C00089A
:100C20006C0C00086C0C0008700C000803008218A3
:100C3000934200D1704719700133F9E7F8B5C04607
:100C4000F8BC08BC9E467047F8B5C046F8BC08BC66
:040C50009E46704705
:100C54000100000002000000040000000800000081
:080C6400100000002000000058
:040C6C00E900000893
:040C7000C1000008B7
:080C7400010101010000200054
:0400000508000B6183
:00000001FF
