:020000040800F2
:100000000008002059090008490700084B070008AC
:1000100000000000000000000000000000000000E0
:100020000000000000000000000000004D07000874
:1000300000000000000000004F0700085107000802
:10004000D9090008D9090008D9090008D909000808
:10005000D909000859070008D909000871070008E4
:1000600000000000D9090008D9090008D9090008D2
:10007000D9090008D909000800000000D9090008C2
:100080000000000000000000000000000000000070
:10009000D90900080000000000000000D90900088C
:1000A00000000000D9090008000000000000000066
:1000B000D9090008D909000800000000000000006C
:1000C00010B5064C2378002B07D1054B002B02D02E
:1000D000044800E000BF0123237010BD0C00002085
:1000E00000000000340A0008044B10B5002B03D0B8
:1000F0000349044800E000BF10BDC04600000000F6
:1001000010000020340A0008002243088B4274D3F8
:1001100003098B425FD3030A8B4244D3030B8B4208
:1001200028D3030C8B420DD3FF22090212BA030C11
:100130008B4202D31212090265D0030B8B4219D3F2
:1001400000E0090AC30B8B4201D3CB03C01A524112
:10015000830B8B4201D38B03C01A5241430B8B425A
:1001600001D34B03C01A5241030B8B4201D30B0343
:10017000C01A5241C30A8B4201D3CB02C01A52416A
:10018000830A8B4201D38B02C01A5241430A8B422D
:1001900001D34B02C01A5241030A8B4201D30B0216
:1001A000C01A5241CDD2C3098B4201D3CB01C01A30
:1001B000524183098B4201D38B01C01A524143093A
:1001C0008B4201D34B01C01A524103098B4201D328
:1001D0000B01C01A5241C3088B4201D3CB00C01A95
:1001E000524183088B4201D38B00C01A524143080D
:1001F0008B4201D34B00C01A5241411A00D2014632
:10020000524110467047FFE701B5002000F006F8A4
:1002100002BDC0460029F7D076E770477047C04658
:10022000054B82B0DA6A0243DA62DB6A1840019059
:10023000019B02B07047C0460010024096231B018C
:10024000C046013B002BFBD1A0230422DB059A61B1
:1002500096221201C046013A002AFBD104329A626A
:1002600070470000A02370B5202286B0DB05C107CF
:1002700015D59A614022810713D59A61A023802267
:10028000DB0541070FD59A616A461100074B8000D4
:1002900070CB70C170CB70C1805806B070BD9A62CF
:1002A000E8E79A62EAE79A62EEE7C0464C0A00087D
:1002B000A023082270B5DB0501281BD09A61052414
:1002C000E0B2FFF7CFFF00268500AE4214DB013C11
:1002D000F6D20D4C013CFFF7B1FF002CFAD1E0B291
:1002E000FFF7C0FF00268500AE4209DB0134062C73
:1002F000F5D170BD9A62E2E7FFF7A0FF0136E4E7AF
:10030000FFF79CFF0136EFE723040000024A136861
:10031000013313607047C0463C0000200122014BAE
:100320001A70704728000020704700000121274BF9
:1003300010B51A688A430A431A600A001968114204
:10034000FCD0234823490368194080231B010B4339
:100350000360214B19680A431A600422196811428C
:10036000FCD05A681D491140802252010A435A604C
:10037000DA681B4911408822D2030A43DA608022DE
:10038000196852040A431A608022920419681142C3
:10039000FCD0F021DA688A43DA60DA6811490A4051
:1003A000DA60DA6810490A400321DA60DA680A4341
:1003B000DA600931DA680A400C2AFBD10B4800F0F8
:1003C00087FA0A4800F094FA10BDC04600200240A7
:1003D00000700040FFE7FFFF00100240FFE0FFFF5A
:1003E000FFFF02FFFFF8FFFFFFC7FFFF0048E80124
:1003F0000120C64BF0B5596B8BB001435963802186
:100400005A6B490502400192019A9A6B0A439A631A
:100410009B6B0B400093009BFFF788FFFA21BC4BBE
:1004200089001868FFF770FE802301385B0498424A
:100430000DD2C021B74A09065060B748036A1B02B3
:100440001B0A0B430362002393600733136002AC63
:1004500008220021200000F0E5FA1822002104A85B
:1004600000F0E0FA0220FFF7DBFE0420FFF7D8FEE1
:10047000A0250120FFF7D4FE02230421102020260E
:100480004027ED05AB62A9624918A962A862AE6275
:10049000E136AF62A14AFF36FF19AF62AE6213695F
:1004A000E8318B43034313619368E1399C4F8B43DD
:1004B0009360FB689B480C390340FB60EA688A4301
:1004C000EA603B6803403B602B6820008B432B6055
:1004D00002960126A680A67100F0AAF9A680200047
:1004E000A671029600F0A4F98023002404AA11004A
:1004F000DB018D4804930896059400F047F98023AA
:1005000004AA1B021100884804930896059400F081
:100510003DF90222049204AA1100280005960694CF
:100520000794089400F032F9042104AA04912800E9
:100530001100059606940794089400F027F9082105
:1005400004AA0491280011000596069407940894C3
:1005500000F01CF9102004AA110004902800059650
:1005600006940794089400F011F9202304A92800A8
:100570000493059606940794089400F007F9402127
:100580002800049104A9059606940794089400F0A5
:10059000FDF8802304A92800049305960694079487
:1005A000089400F0F3F80222049204AA1100380023
:1005B0000594089400F0EAF8802304AA11009B0037
:1005C00028000493059606940794089400F0DEF83A
:1005D000802304AA1100DB002800049305940894EA
:1005E00000F0D4F82022514B7F361E601A60802321
:1005F00010209B00A862AB610C38FFF733FE082186
:1006000048364643A961A64274DC0420FFF72AFE5F
:100610000823AB6280250024AD00FFF70FFE3B6985
:100620001A002A402B4269D00134032CF5DD002347
:100630003F4A13703E4B3F4E1B783168002B0ED063
:10064000FA203D4A40001368CB1A834207D9A02301
:1006500011601022DB051969114251D19A61324BA8
:10066000326819698023DB010B401800334C411EAE
:1006700088412578C1B2AC46314D844500D02A600E
:1006800019273048BC460078002801D1E137BC4624
:100690002F68D21B624535D9884233D0294A117060
:1006A000002B2FD101202370FFF702FE1E4B326872
:1006B000196980231B020B401800411E884166788F
:1006C000C1B2864200D06A601E48192640780028D0
:1006D00000D1E1366D68521BB24215D9884213D061
:1006E000184A5170002B0FD1012040426370FFF770
:1006F000DFFD9FE7FFF7A2FD013484E714008CE7DC
:100700009A62ACE72170D1E7617093E70010024074
:100710000800002010E000E000ED00E000000140D3
:1007200000040050FFFFF3FF0008005000E100E06C
:10073000280000203C00002038000020030000209A
:100740002C000020000000207047FEE77047704733
:1007500010B5FFF7DBFD10BD0122044B10B5596940
:10076000114202D05A61FFF7D9FD10BD00040140CB
:100770008022054B9200596910B5114202D05A618E
:10078000FFF7D2FD10BDC04600040140F7B50023BD
:1007900002000C6800932000009BD84000D1FEBDF1
:1007A0000120009B984023000340044231D0486858
:1007B00003250190180058434543019EED43771EE1
:1007C000012F0BD88F68966847432E4037439760B8
:1007D0005768CE68A74374433C4354600C69D7689C
:1007E00044432F403C43D460019C022C0BD14F6901
:1007F000FF2B11D803000F2643435E437B43146A4B
:10080000B4431C43146213681D40019B58430543C5
:100810001560009B0133BCE70F261B0A5B435B435B
:100820005E437B43546AB4431C435462EBE70000CD
:10083000020010B50079136800283CD000208342E4
:100840001DD0507901281BD0022822D0002824D1A5
:100850001E494C689C434C600C681C430C609279A8
:10086000002A0CD0022A1AD0032A20D0012A2AD129
:10087000164AD1689943D16091680B43936010BDCB
:100880001249086898430860486818434860002087
:10089000E5E70E4908681843F5E70120DFE70B4A52
:1008A000916899439160D1680B43D360E7E7074AA9
:1008B00091681943F6E7054A116899431160516838
:1008C00099435160DBE70120D9E7C04600040140AD
:1008D000FA2110B58900FFF717FC0022034B0138FD
:1008E00058609A6005321A6010BDC04610E000E002
:1008F000014B18607047C046080000208022104B52
:10090000520019680A431A60DA680E490A40DA6030
:100910001A680D490A4001211A609A688A439A6050
:100920001A680A490A401A60DA6809490A40DA6016
:1009300000221A618022074B12059A607047C04658
:10094000001002400C40FF88F6FFF6FEFFFFFBFFA1
:10095000FFFF02FF00ED00E01348854613480168E1
:10096000090E134A914205D11248134901601348F8
:1009700013490160002103E0124B5B5843500431DE
:100980001148124B42189A42F6D3114A02E0002352
:10099000136004320F4B9A42F9D3FFF7AFFF00F018
:1009A0001DF8FFF725FDFEE7000800200400000009
:1009B0001F00000034100240010000000000014050
:1009C000000000006C0A0008000000200C0000205D
:1009D0000C00002040000020FEE7000070B500265B
:1009E0000C4D0D4C641BA410A64209D1002600F04A
:1009F00021F80A4D0A4C641BA410A64205D170BD13
:100A0000B300EB5898470136EEE7B300EB58984730
:100A10000136F2E7640A0008640A0008640A000864
:100A2000680A000803008218934200D170471970C9
:100A30000133F9E7F8B5C046F8BC08BC9E467047DC
:0C0A4000F8B5C046F8BC08BC9E467047E4
:100A4C00010000000200000004000000080000008B
:080A5C00100000002000000062
:040A6400E90000089D
:040A6800C1000008C1
:0C0A6C0001010101010100000000200058
:04000005080009598D
:00000001FF
