:020000040800F2
:1000000000080020450A00083508000837080008E5
:1000100000000000000000000000000000000000E0
:100020000000000000000000000000003908000887
:1000300000000000000000003B0800083D08000828
:10004000C50A0008C50A0008C50A0008C50A000854
:10005000C50A000845080008C50A00085D08000830
:1000600000000000C50A0008C50A0008C50A00080B
:10007000C50A0008C50A000800000000C50A0008FB
:100080000000000000000000000000000000000070
:10009000C50A00080000000000000000C50A0008B2
:1000A00000000000C50A0008000000000000000079
:1000B000C50A0008C50A0008000000000000000092
:1000C00010B5064C2378002B07D1054B002B02D02E
:1000D000044800E000BF0123237010BD0C00002085
:1000E00000000000200B0008044B10B5002B03D0CB
:1000F0000349044800E000BF10BDC04600000000F6
:1001000010000020200B0008002243088B4274D30B
:1001100003098B425FD3030A8B4244D3030B8B4208
:1001200028D3030C8B420DD3FF22090212BA030C11
:100130008B4202D31212090265D0030B8B4219D3F2
:1001400000E0090AC30B8B4201D3CB03C01A524112
:10015000830B8B4201D38B03C01A5241430B8B425A
:1001600001D34B03C01A5241030B8B4201D30B0343
:10017000C01A5241C30A8B4201D3CB02C01A52416A
:10018000830A8B4201D38B02C01A5241430A8B422D
:1001900001D34B02C01A5241030A8B4201D30B0216
:1001A000C01A5241CDD2C3098B4201D3CB01C01A30
:1001B000524183098B4201D38B01C01A524143093A
:1001C0008B4201D34B01C01A524103098B4201D328
:1001D0000B01C01A5241C3088B4201D3CB00C01A95
:1001E000524183088B4201D38B00C01A524143080D
:1001F0008B4201D34B00C01A5241411A00D2014632
:10020000524110467047FFE701B5002000F006F8A4
:1002100002BDC0460029F7D076E770477047C04658
:10022000054B82B0DA6A0243DA62DB6A1840019059
:10023000019B02B07047C04600100240A02370B579
:10024000202286B0DB05C10715D59A6140228107BF
:1002500013D59A61A0238022DB0541070FD59A614F
:100260006A461100074B800070CB70C170CB70C123
:10027000805806B070BD9A62E8E79A62EAE79A622F
:10028000EEE7C046380B0008134B144A1B68002BDE
:1002900018DA9B18872B10D9F021114A89009A1877
:1002A0008A420AD9C5210F4A49009A188A4204D9BC
:1002B0000D4A9B180D4A934208D8A0230222DB0561
:1002C0009A6170479342E5DD094AE2E7A0230222E2
:1002D000DB059A62F5E7C0462C0000204E110000B5
:1002E000ADFBFFFF59F7FFFF06F3FFFFB102000070
:1002F000B2EEFFFF962310B51B01C046013B002B59
:10030000FBD1A0230422DB059A6196221201C0468C
:10031000013A002AFBD104329A62054B054A1B7848
:1003200011685BB25B181360FFF7AEFF10BDC046EB
:10033000280000202C000020A0231022DB0570B52F
:100340009A62154A1070082201281BD09A61052470
:10035000E0B2FFF773FF00268500AE4214DB013CDC
:10036000F6D20E4C013CFFF7C5FF002CFAD1E0B2EB
:10037000FFF764FF00268500AE4209DB0134062C3E
:10038000F5D170BD9A62E2E7FFF7B4FF0136E4E70A
:10039000FFF7B0FF0136EFE728000020230400003C
:1003A000024A1368013313607047C04644000020BE
:1003B0000122014B1A707047300000207047000086
:1003C0000121274B10B51A688A430A431A600A00B4
:1003D00019681142FCD0234823490368194080233F
:1003E0001B010B430360214B19680A431A60042266
:1003F00019681142FCD05A681D49114080225201EF
:100400000A435A60DA681B4911408822D2030A4322
:10041000DA608022196852040A431A60802292042A
:1004200019681142FCD0F021DA688A43DA60DA6890
:1004300011490A40DA60DA6810490A400321DA609B
:10044000DA680A43DA600931DA680A400C2AFBD11B
:100450000B4800F0B3FA0A4800F0C0FA10BDC046DD
:100460000020024000700040FFE7FFFF0010024044
:10047000FFE0FFFFFFFF02FFFFF8FFFFFFC7FFFFE7
:100480000048E8010120D94BF0B5596B8FB001430A
:10049000596380215A6B490502400592059A9A6B6F
:1004A0000A439A639B6B0B400493049BFFF788FFFE
:1004B000FA21CF4B89001868FFF726FE8023013808
:1004C0005B0498420DD2C021CA4A09065060CA484E
:1004D000036A1B021B0A0B4303620023936007336A
:1004E000136006AC08220021200000F011FB182246
:1004F000002108A800F00CFB0220FFF791FE042069
:10050000FFF78EFEA0250120FFF78AFE02230421BB
:10051000102020264027ED05AB62A9624918A96288
:10052000A862AE62E136AF62B44AFF36FF19AF622D
:10053000AE621369E8318B43034313619368E13979
:10054000AF4F8B439360FB68AE480C390340FB60B0
:10055000EA688A43EA603B6803403B602B682000FE
:100560008B432B6006960126A680A67100F0D6F973
:10057000A6802000A671069600F0D0F98023002402
:1005800008AA1100DB01A04808930C96099400F01A
:1005900073F9802308AA1B0211009B4808930C964C
:1005A000099400F069F90222089208AA11002800B3
:1005B00009960A940B940C9400F05EF9042108AAA1
:1005C00028000891110009960A940B940C9400F0ED
:1005D00053F9082108AA28000891110009960A94E5
:1005E0000B940C9400F048F9102008AA1100089010
:1005F000280009960A940B940C9400F03DF92023EE
:10060000280008A9089309960A940B940C9400F00A
:1006100033F940212800089108A909960A940B94FF
:100620000C9400F029F98023280008A90893099662
:100630000A940B940C9400F01FF90222089208AA65
:100640001100380009940C9400F016F9802308AAD0
:1006500011009B002800089309960A940B940C94AF
:1006600000F00AF9802308AA1100DB002800089393
:1006700009940C9400F000F92022644B7F361E6030
:100680001A60802310209B00A862AB610C38FFF732
:10069000D5FDFF2308215E4E3370A961C82545436F
:1006A0000397A54200DD92E00420FFF7C7FD012378
:1006B0003370A023082280250024DB059A62AD0058
:1006C000FFF718FE039B1B691A002A402B4200D13A
:1006D00081E00134032CF3DDFFF7D6FD00234D4A02
:1006E00013604D4A13704D4D4D4C2B680193039B85
:1006F0001A69A023DB051B69920706D4019A012021
:1007000022605B0569D5FFF717FE434B1B78002B72
:1007100005D12268019B9B1A424A934205D9019B4D
:10072000A02223601023D20593618023364F2A68CC
:100730003969DB010B401800411E88413A4EC1B2B5
:100740003678864201D03948026039480678192047
:100750000290002E01D1E130029034480068121A54
:10076000029882423BD98E4239D0314A1170002B17
:1007700035D12D4A01201370019B2360FFF7DCFD6A
:1007800080232A6839691B020B401800411E8841EA
:10079000254D264F6D78C1B2854200D07A6024483D
:1007A00019264578002D00D1E1367F68D21BB24270
:1007B00018D98D4216D04170002B13D101201A4A4E
:1007C00040425370019B2360FFF7B6FD8BE7FFF7B4
:1007D00091FD013465E7140072E7404293E7124B44
:1007E0001970CDE7104B59707DE7C04600100240EC
:1007F0000800002010E000E000ED00E000000140F3
:1008000000040050FFFFF3FF0008005000E100E08B
:10081000280000202C000020300000204400002090
:100820003400002060EA00000300002038000020AF
:10083000000000207047FEE77047704710B5FFF7D3
:10084000AFFD10BD0122044B10B55969114202D011
:100850005A61FFF7ADFD10BD000401408022054B39
:100860009200596910B5114202D05A61FFF7A6FDF6
:1008700010BDC04600040140F7B5002302000C681B
:1008800000932000009BD84000D1FEBD0120009BBA
:10089000984023000340044231D04868032501906A
:1008A000180058434543019EED43771E012F0BD896
:1008B0008F68966847432E40374397605768CE68E5
:1008C000A74374433C4354600C69D76844432F40AA
:1008D0003C43D460019C022C0BD14F69FF2B11D8F3
:1008E00003000F2643435E437B43146AB4431C4317
:1008F000146213681D40019B584305431560009B1B
:100900000133BCE70F261B0A5B435B435E437B431B
:10091000546AB4431C435462EBE70000020010B574
:100920000079136800283CD0002083421DD0507904
:1009300001281BD0022822D0002824D11E494C684F
:100940009C434C600C681C430C609279002A0CD0CC
:10095000022A1AD0032A20D0012A2AD1164AD168A5
:100960009943D16091680B43936010BD12490868A8
:10097000984308604868184348600020E5E70E493E
:1009800008681843F5E70120DFE70B4A91689943AF
:100990009160D1680B43D360E7E7074A9168194338
:1009A000F6E7054A1168994311605168994351600F
:1009B000DBE70120D9E7C04600040140FA2110B569
:1009C0008900FFF7A1FB0022034B013858609A60B1
:1009D00005321A6010BDC04610E000E0014B1860FF
:1009E0007047C046080000208022104B5200196852
:1009F0000A431A60DA680E490A40DA601A680D493B
:100A00000A4001211A609A688A439A601A680A4962
:100A10000A401A60DA6809490A40DA6000221A615D
:100A20008022074B12059A607047C04600100240B2
:100A30000C40FF88F6FFF6FEFFFFFBFFFFFF02FF03
:100A400000ED00E01348854613480168090E134A7B
:100A5000914205D1124813490160134813490160BE
:100A6000002103E0124B5B58435004311148124BF4
:100A700042189A42F6D3114A02E00023136004326E
:100A80000F4B9A42F9D3FFF7AFFF00F01DF8FFF7C5
:100A9000F9FCFEE700080020040000001F00000031
:100AA000341002400100000000000140000000007E
:100AB000580B0008000000200C0000200C00002053
:100AC00048000020FEE7000070B500260C4D0D4CDC
:100AD000641BA410A64209D1002600F021F80A4D9B
:100AE0000A4C641BA410A64205D170BDB300EB589C
:100AF00098470136EEE7B300EB5898470136F2E726
:100B0000500B0008500B0008500B0008540B000855
:100B100003008218934200D1704719700133F9E73E
:100B2000F8B5C046F8BC08BC9E467047F8B5C0464C
:080B3000F8BC08BC9E467047AA
:100B3800010000000200000004000000080000009E
:080B4800100000002000000075
:040B5000E9000008B0
:040B5400C1000008D4
:0C0B58000101010101010000000020006B
:0400000508000A45A0
:00000001FF
