:020000040800F2
:1000000000080020D10600087105000873050008EB
:1000100000000000000000000000000000000000E0
:10002000000000000000000000000000750500084E
:10003000000000000000000077050008BD02000875
:100040005107000851070008510700085107000830
:100050005107000851070008510700085107000820
:100060000000000051070008510700085107000870
:100070005107000851070008000000005107000860
:100080000000000000000000000000000000000070
:1000900051070008000000000000000051070008A0
:1000A00000000000510700080000000000000000F0
:1000B0005107000851070008000000000000000080
:1000C00010B5064C2378002B07D1054B002B02D02E
:1000D000044800E000BF0123237010BD7000002021
:1000E0000000000064170008044B10B5002B03D07B
:1000F0000349044800E000BF10BDC04600000000F6
:10010000740000206417000803B4714649084000D9
:100110004900095E49008E4403BC70470022430831
:100120008B4274D303098B425FD3030A8B4244D3BF
:10013000030B8B4228D3030C8B420DD3FF22090201
:1001400012BA030C8B4202D31212090265D0030BC0
:100150008B4219D300E0090AC30B8B4201D3CB03B6
:10016000C01A5241830B8B4201D38B03C01A5241F8
:10017000430B8B4201D34B03C01A5241030B8B42FA
:1001800001D30B03C01A5241C30A8B4201D3CB02E5
:10019000C01A5241830A8B4201D38B02C01A5241CA
:1001A000430A8B4201D34B02C01A5241030A8B42CD
:1001B00001D30B02C01A5241CDD2C3098B4201D3E5
:1001C000CB01C01A524183098B4201D38B01C01A63
:1001D000524143098B4201D34B01C01A52410309DA
:1001E0008B4201D30B01C01A5241C3088B4201D389
:1001F000CB00C01A524183088B4201D38B00C01A36
:10020000524143088B4201D34B00C01A5241411A5C
:1002100000D20146524110467047FFE701B5002069
:1002200000F006F802BDC0460029F7D076E7704717
:100230007047C046054B82B0DA6A0243DA62DB6A75
:1002400018400190019B02B07047C0460010024068
:10025000154B01001A68154BF0B51B6901281FD01A
:100260005B04DB0F1248455C1248844688009D42BF
:1002700001D065462A50104D19276E5C002E00D122
:10028000E13764462058121A0020BA4205D99E422E
:1002900003D00122D01A6B541040054A5354F0BDCC
:1002A000DB0B0340DEE7C04698000020000800504A
:1002B000030000208C000020000000200122002309
:1002C000044930B50C684D6812196B410A604B60E7
:1002D00030BDC046980000200122204B10B519689F
:1002E0009143196019681142FCD11D491D4A0B68E0
:1002F0001A4080231B01134380220B601A4B5200CB
:1003000019680A431A608022920019681142FCD0D1
:100310005A6816491140A02212020A43F0215A607D
:100320005A681202120A5A60DA688A43DA60DA6896
:100330000F490A40DA60DA680E490A400321DA60A0
:10034000DA688A43DA600C22D9681142FCD10A4883
:1003500000F064F9084800F087F910BD0020024061
:1003600000700040FFE7FFFF00100240FF1FFFFF8B
:10037000FFF8FFFFFFC7FFFF68FF1F00F0B5012672
:100380008021774B89B05A6B490532435A635A6BC7
:10039000A02532400192019A9A6B40240A439A6345
:1003A0009B6B80270B400093009BFFF795FF182263
:1003B000002102A800F0F2F90220FFF73BFF042021
:1003C000FFF738FF3000FFF735FF0223042210212A
:1003D0002020ED05AB62AA629218AA62A962A86207
:1003E000AC620024AF628137FF37AF6202A95D487B
:1003F00002970394069600F0BFF8802302A9DB0160
:10040000594802930394069600F0B6F8802302A997
:100410001B02554802930394069600F0ADF802A91A
:10042000280002960394069400F0A6F8022302A97D
:1004300028000293039604940594069400F09CF817
:1004400004212800029102A90396049405940694BD
:1004500000F092F8082202A9280002920396049460
:100460000594069400F088F810212800029102A952
:10047000039604940594069400F07EF8202002A9C7
:1004800002902800039604940594069400F074F8F2
:10049000402302A92800029303960494059406942D
:1004A00000F06AF8802202A92800029203960494C0
:1004B0000594069400F060F8022302A929480293EB
:1004C0000394069400F058F8039602AE3100280019
:1004D000029704940594069400F04EF8802302AE2F
:1004E000DB003100280002930394069400F044F8E6
:1004F0001021202040230822A962AF62813FFF3FE4
:10050000A8620434AB62AF62AA623220AC6100F030
:1005100095F83220AC6200F091F8124B1B699B05F4
:10052000F3D4A0250124ED052B69180020402342B7
:1005300005D00E4800F03AF91023AB61FEE7FFF753
:1005400087FE002806D10020FFF782FE2000FFF77B
:100550007FFEE9E72000FFF77BFE0028E4D1F2E709
:100560000010024000040050000800507C170008F2
:100570007047FEE770477047F7B5002302000C682C
:1005800000932000009BD84000D1FEBD0120009BBD
:10059000984023000340044231D04868032501906D
:1005A000180058434543019EED43771E012F0BD899
:1005B0008F68966847432E40374397605768CE68E8
:1005C000A74374433C4354600C69D76844432F40AD
:1005D0003C43D460019C022C0BD14F69FF2B11D8F6
:1005E00003000F2643435E437B43146AB4431C431A
:1005F000146213681D40019B584305431560009B1E
:100600000133BCE70F261B0A5B435B435E437B431E
:10061000546AB4431C435462EBE70000FA2110B55E
:100620008900FFF77BFD0022034B013858609A6078
:1006300005321A6010BDC04610E000E0094B82B0E0
:100640001A680192019A421C511E8A418018802228
:100650005202002801D102B0704719681142F8D047
:100660000138F6E710E000E0014B18607047C04623
:10067000080000208022104B520019680A431A60BB
:10068000DA680E490A40DA601A680D490A40012109
:100690001A609A688A439A601A680A490A401A607E
:1006A000DA6809490A40DA6000221A618022074BA1
:1006B00012059A607047C046001002400C40FF8847
:1006C000F6FFF6FEFFFFFBFFFFFF02FF00ED00E07D
:1006D0001348854613480168090E134A914205D113
:1006E000124813490160134813490160002103E0D7
:1006F000124B5B58435004311148124B42189A4236
:10070000F6D3114A02E00023136004320F4B9A42E1
:10071000F9D3FFF7AFFF00F01DF8FFF72FFEFEE75C
:1007200000080020040000001F00000034100240F8
:100730000100000000000140000000003C1800081B
:10074000000000207000002070000020BC0000208D
:10075000FEE7000070B500260C4D0D4C641BA41084
:10076000A64209D1002600F0FDFF0A4D0A4C641B89
:10077000A410A64205D170BDB300EB5898470136CE
:10078000EEE7B300EB5898470136F2E7341800085B
:1007900034180008341800083818000803008218BC
:1007A000934200D1704719700133F9E70FB40B4B36
:1007B00013B51C68002C05D0A369002B02D12000C2
:1007C00000F070F805AB2000049AA168019300F0D6
:1007D00093F916BC08BC04B01847C0460C000020B2
:1007E000002310B504000360436083608181436689
:1007F0001900C28103614361836108225C30FFF705
:10080000CDFF054B6362054B2462A362044BE36298
:10081000044B236310BDC04695100008BD100008AE
:10082000F51000082111000810B5024900F0BAF8CF
:1008300010BDC0462D14000870B568254A1E5543EA
:100840000E002900743100F0D1F8041E08D00021F8
:100850002A00016046600C30A0606832FFF79EFFFE
:10086000200070BD10B5024800F0BDF810BDC046B4
:10087000B400002010B5024800F0B6F810BDC04624
:10088000B400002010B5024800F0ADF810BDC0461D
:10089000AF00002010B5024800F0A6F810BDC04619
:1008A000AF00002013B50400FFF7ECFFA369002B95
:1008B00002D0FFF7EFFF13BDA364E3642365134B7E
:1008C000134A1B68A2620193A34201D10123A361D1
:1008D000200000F01FF86060200000F01BF8A0600E
:1008E000200000F017F800220421E0606068FFF7A4
:1008F00077FF01220921A068FFF772FF022212216F
:10090000E068FFF76DFF0123A361D2E79C170008A1
:1009100029080008F8B50700FFF7A4FF1F4B1E6861
:10092000B369002B02D13000FFF7BCFF4836B46832
:100930007368013B04D53368002B22D03668F6E794
:100940000C22A55E002D1AD12000154B5830E36013
:10095000656600F047F8FFF78DFF200008222900A8
:100960002560A560656025616561A5615C30FFF764
:1009700015FF6563A563A564E5642000F8BD6834D0
:10098000D7E704213800FFF757FF041E3060D5D1A8
:10099000FFF770FF0C233B60EFE7C0469C17000891
:1009A0000100FFFFF7B5040006000027019148345D
:1009B0006368A5680093009B013B009304D52468FD
:1009C000002CF5D13800FEBDAB89012B08D90E22D1
:1009D000AB5E013304D029003000019B98470743E8
:1009E0006835E8E77047704770470000F8B50323A3
:1009F000CD1C9D43083506000C2D1FD20C25A942A5
:100A00001ED8300000F0DEFD25490A681400002CD5
:100A10001AD1244F3B68002B04D12100300000F094
:100A200027FB38602900300000F022FB431C2BD14B
:100A30000C233000336000F0CDFD03E0002DDEDA42
:100A40000C2333600020F8BD23685B1B19D40B2BEB
:100A500003D92360E418256003E06368A2420ED145
:100A60000B60300000F0B6FD200007220B30231D84
:100A70009043C21A9842E6D01B1AA350E3E7536092
:100A8000EFE722006468C2E70323C41C9C43A04232
:100A9000E1D0211A300000F0EBFA431CDBD1C7E7AC
:100AA000A0000020A4000020936810B5013B9360D3
:100AB000002B04DA9469A34207DB0A2905D01368E6
:100AC000581C10601970080010BD00F02FFB0100C9
:100AD000F9E7F8B506000F001400D518AC4201D1B3
:100AE000002007E021783A003000FFF7DDFF0134F5
:100AF000431CF3D1F8BD0000F0B5A1B006000C0016
:100B00001F000392002804D08369002B01D1FFF756
:100B1000C9FE8E4B9C421CD17468636EDB0705D402
:100B2000A3899B0502D4A06DFFF75DFFA3891B0776
:100B300002D52369002B1DD12100300000F060FB9D
:100B4000002817D0636EDB070DD50120404221B08D
:100B5000F0BD7F4B9C4201D1B468DEE77D4B9C42E7
:100B6000DBD1F468D9E7A3899B05EED4A06DFFF72C
:100B70003BFFEAE7002308AD6B6120336B7610334F
:100B8000AB760797039F3B78002B01D0252B4ED1E6
:100B9000039BFB1A0593039B9F420DD0059B2100ED
:100BA0003000039AFFF795FF431C00D1B5E06A6956
:100BB000059B944663446B613B78002B00D1ACE00D
:100BC00001227B1C0393002352426A6004A9543221
:100BD00052182B60EB60AB601370AB65039B052272
:100BE00019785D4800F0E2FC039B5F1C002820D1CF
:100BF0002A68D30604D5532304A95B182021197051
:100C0000130704D5532304A95B182B211970039BE8
:100C10001B782A2B16D00021EB68039F3A78781CAA
:100C2000303A8446092A4FD9002911D117E00137FB
:100C3000A9E7494B2A68C01A0123834013432B605C
:100C40000397CBE7079B191D1B680791002B01DB5E
:100C50000B9304E05B42EB60022313432B603B7871
:100C60002E2B0AD17B782A2B37D1079B02371A1DEE
:100C70001B680792002B2DDB099303223978374834
:100C800000F094FC002807D0344B2A68C01A402397
:100C90008340134301372B6039787B1C0622304890
:100CA0000393297600F082FC002845D02D4B002BC1
:100CB00027D10722079B07339343083307936B69B8
:100CC000049A9B186B615DE70A214B4367469B18AA
:100CD0000939A3E701235B42CEE700231A0001375D
:100CE0006B603978781C30398446092903D9002B88
:100CF000C3D00992C1E70A235A4367465218093BF9
:100D0000EFE707AB0093220029003000164B00E00C
:100D100000BF0490049B0133D1D1636EDB0705D47F
:100D2000A3899B0502D4A06DFFF75EFEA3895B0635
:100D300000D50AE70D980AE707AB009322002900C7
:100D40003000094B00F082F8E3E7C046C017000806
:100D5000E0170008A017000800180008061800088F
:100D60000A18000800000000D30A0008F7B51500B3
:100D700001938A680B690C000090934200DA13001B
:100D800022002B6043321278002A01D001332B60FD
:100D900023689B0602D52B6802332B60226806234A
:100DA00017001F401A4227D0230043331B785A1ED6
:100DB00093412268920630D4220001990098089E3F
:100DC0004332B047431C25D0062320682A68E168D7
:100DD00000250340042B03D18D1AEB43DB171D4084
:100DE000A3682269934201DD9B1AED180027BD42DA
:100DF00020D1002010E00137E3682A689B1ABB422B
:100E0000D2DD2200012301990098089E1932B047D3
:100E1000431CF0D101204042FEBD3020E118433197
:100E2000087021005A1C45310978A2184332023358
:100E30001170C1E72200012301990098089E1A321F
:100E4000B047431CE6D00137D1E70000F0B58BB0C6
:100E500006920A0043320793059004920A7E0C0022
:100E6000109B782A06D8622A08D8002A00D1C0E050
:100E7000582A52D026004236327022E010006338E1
:100E80001528F7D8FFF740F916001F00F6FFF6FF08
:100E9000F6FFF6FF1F00F6FFF6FFF6FFF6FFA800CD
:100EA00036009A00F6FFF6FFB900F6FF3600F6FFAF
:100EB000F6FF9E0026001A684236111D196013685D
:100EC00033700123A7E0086819680A1D05060BD5D1
:100ED0000D681A60002D03DA2D23049A6D421370F9
:100EE000614B0A27039332E00D681A604106F1D581
:100EF0002DB2EFE70D681968081D18602E0601D5A0
:100F00000D6803E06D06FBD50D68ADB2564B0A27A0
:100F100003936F2A17D1082715E045310A70524A0A
:100F200003921A68216820CA1A60080650D5CB07B8
:100F300002D52023194321601027002D03D120233F
:100F400022689A4322602300002243331A706368A8
:100F5000A360002B03DB0422216891432160002D54
:100F600002D1049E002B0CD0049E28003900FFF70C
:100F70005BF9039B013E5B5C33702B0005009F42D5
:100F8000F3D9082F09D12368DB0706D563682269E6
:100F9000934202DC3023013E3370049B9B1B236190
:100FA000079B210000930598069B09AAFFF7DEFE28
:100FB000431C35D1012040420BB0F0BD202209680E
:100FC0000A4322602200782145321170274AA7E7A0
:100FD0004806ACD5ADB2AAE71A680D68101D49697C
:100FE000186013682E0601D5196002E06D06FBD566
:100FF00019800023049E2361D2E71A68111D19602D
:10100000166800213000626800F0D0FA002801D094
:10101000801B6060636823610023049A1370BFE73C
:101020002369320006990598079DA847431CC1D043
:1010300023689B0715D4099BE0689842BCDA180026
:10104000BAE72200012306990598079E1932B04796
:10105000431CAFD00135E368099A9B1AAB42F0DC20
:10106000E9E70025F7E7C046111800082218000834
:10107000002370B5064D040008002B6000F05CFBF7
:10108000431C03D12B68002B00D0236070BDC046E9
:10109000B800002070B50C000E25495F00F0ECFA96
:1010A000002803DB636D1B18636570BDA389024ACA
:1010B0001340A381F9E7C046FFEFFFFFF8B51F001B
:1010C0008B8905000C001600DB0505D50E23C95ED3
:1010D0000022022300F0EAF9A389054A2800134000
:1010E000A38132000E23E15E3B0000F075F8F8BDED
:1010F000FFEFFFFF70B50C000E25495F00F0D6F939
:10110000A389421C03D1054A1340A38170BD8022EC
:1011100052011343A3816065F8E7C046FFEFFFFF6C
:1011200010B50E23C95E00F0E3F810BDF8B5050058
:101130000E001400002804D08369002B01D1FFF7B2
:10114000B1FB224B9C422ED16C68A369A360A3899A
:101150001B0732D52369002B2FD023682269F7B2F1
:10116000981A6369F6B2834205DC2100280000F07A
:101170005DF9002827D1A3680130013BA3602368F3
:101180005A1C22601F706369834204D0A389DB0765
:1011900007D50A2E05D12100280000F047F90028C4
:1011A00011D13000F8BD0A4B9C4201D1AC68CCE7AC
:1011B000084B9C42C9D1EC68C7E72100280000F029
:1011C0001FF80028C9D001267642EAE7C0170008B8
:1011D000E0170008A017000870B50400080011000F
:1011E0001A000023054D2B6000F0B4FA431C03D114
:1011F0002B68002B00D0236070BDC046B8000020D3
:10120000374B70B51D6806000C00002D05D0AB698A
:10121000002B02D12800FFF745FB324B9C420FD137
:101220006C680C23E25E93B211072DD4D90611D459
:1012300009230120336037331343A381404270BD3B
:10124000294B9C4201D1AC68EBE7284B9C42E8D18A
:10125000EC68E6E75B0713D5616B002908D0230033
:101260004433994202D0300000F0BCF9002363639C
:101270002422A3899343A38100236360236923600D
:101280000823A2891343A3812369002B0BD1A0213A
:101290008022A389890092000B40934203D0210051
:1012A000300000F03FF90C22A35E01201A0099B231
:1012B000024003420FD00022A26062695242A26142
:1012C000002022698242BAD10A06B8D540221343CF
:1012D000A3810138B3E7880700D46269A260EFE711
:1012E0000C000020C0170008E0170008A017000835
:1012F000002370B5064D040008002B6000F0F4F9DF
:10130000431C03D12B68002B00D0236070BDC04666
:10131000B8000020F7B58B8905000C001A075FD4D0
:101320004A68002A04DC0A6C002A01DC0020FEBDA9
:10133000E76A002FFAD0002280212E682A601A0066
:1013400049010A400B4234D0606DA3895B0706D582
:101350006368C01A636B002B01D0236CC01A0200B3
:10136000216A00232800E76AB847A189431C06D1F7
:101370002B681D2B31D82C4ADA40D3072DD50023FA
:10138000636023692360CB0405D5431C02D12B681D
:10139000002B00D16065616B2E600029C6D0230050
:1013A0004433994202D0280000F01CF90020606309
:1013B000BDE701232800216AB847431CC5D12B682B
:1013C000002BC2D01D2B01D0162B01D12E60ADE712
:1013D0004023A2891343A381A9E740230B43FAE7E3
:1013E0000F69002FA2D00A680F60D21B0192002261
:1013F0009B0700D14A69A260019B002B00DC95E7A6
:101400003A002800019B216AA66AB047002806DC42
:1014100040230120A28940421343A38187E7019B17
:101420003F181B1A0193E7E7010040200B6970B5D4
:1014300005000C00002B02D10025280070BD0028FB
:1014400004D08369002B01D1FFF72CFA144B9C4286
:101450001BD16C680C22A35E002BEDD0626ED2070C
:1014600004D49B0502D4A06DFFF7BDFA280021002B
:10147000FFF750FF636E0500DB07DED4A3899B05F1
:10148000DBD4A06DFFF7B0FAD7E7064B9C4201D141
:10149000AC68DFE7044B9C42DCD1EC68DAE7C0467D
:1014A000C0170008E0170008A017000870B5040076
:1014B000080011001A000023054D2B6000F02CF9E4
:1014C000431C03D12B68002B00D0236070BDC046A5
:1014D000B800002070B50E001D000E23C95E140078
:1014E00096B0002907DA00232B60B3891B0611D4BC
:1014F0008023DB000FE06A4600F0D2F80028F2DB20
:10150000F02301991B021940054BC9184B42594160
:101510002960EDE740230020236016B070BDC0466F
:1015200000E0FFFFF7B502268B8905000C0033426F
:1015300006D0230047332360236101236361F7BD95
:101540006A4601ABFFF7C6FF009907002800FFF7C6
:101550004DFA002808D10C22A35E9A05EFD403228D
:1015600093431E43A681E4E70F4BAB628023A2891D
:1015700020601343A381009B20616361019B002BCA
:101580000DD028000E23E15E00F09CF8002806D064
:101590000322A38993431A0001231343A381A08943
:1015A0000743A781CBE7C04629080008C9B28218C3
:1015B000904201D10020704703788B42FBD001306C
:1015C000F6E7000010B50248FFF70DFA10BDC0465F
:1015D000B000002010B50248FFF706FA10BDC04663
:1015E000B000002070B50500002910D00C1F236842
:1015F000002B00DAE4182800FFF7E4FF1D4A136807
:10160000002B05D1636014602800FFF7E3FF70BD75
:10161000A34208D9216860188342F3D118685B6837
:1016200041182160EEE71A005B68002B01D0A3424D
:10163000F9D911685018A0420BD120680918501828
:1016400011608342E0D118685B68411811605360F3
:10165000DAE7A04202D90C232B60D5E72168601895
:10166000834203D118685B6841182160636054604D
:10167000CAE7C046A000002070B5040008001100B1
:101680001A000023054D2B6000F04EF8431C03D1D7
:101690002B68002B00D0236070BDC046B80000202E
:1016A000002370B5064D0400080011002B6000F007
:1016B00023F8431C03D12B68002B00D0236070BD9E
:1016C000B8000020002370B5064D040008002B6010
:1016D00000F01AF8431C03D12B68002B00D02360C4
:1016E00070BDC046B800002058220120014B404286
:1016F0001A607047B800002058220120014B404278
:101700001A607047B80000205822024B00201A606F
:101710007047C046B800002058220120014B4042CB
:101720001A607047B800002058220120014B404247
:101730001A607047B8000020044A030010680028AF
:1017400002D0C318136070470148FAE7A8000020D0
:10175000C000002058220120014B40421A6070470F
:10176000B8000020F8B5C046F8BC08BC9E467047DB
:0C177000F8B5C046F8BC08BC9E467047A7
:10177C007374657070657220647269766572206628
:10178C0061756C7420646574656374656421000014
:10179C00100000200000000000000000000000000D
:1017AC00000000000000000000000000000000002D
:1017BC00000000000000000000000000000000001D
:1017CC00000000000000000000000000000000000D
:1017DC0000000000000000000000000000000000FD
:1017EC0000000000000000000000000000000000ED
:1017FC0000000000232D302B2000686C4C00656627
:10180C006745464700303132333435363738394145
:10181C00424344454600303132333435363738395B
:08182C0061626364656600005F
:04183400E9000008BF
:04183800C1000008E3
:10183C000101010101010000000020001000002046
:10184C0000000000C0170008E0170008A0170008EF
:10185C00000000000000000000000000000000007C
:10186C00000000000000000000000000000000006C
:10187C00000000000000000000000000000000005C
:10188C00000000000000000000000000000000004C
:10189C00000000000000000000000000000000003C
:04000005080006D118
:00000001FF
